:2001010085822A85832BE528C3952AF582E529952BF583121CA2AA82AB83ACF0B2E7FDC012
:2001210002C003C004C00590D40075F0687447121D2285822C85832D85F02EF52FE581247A
:20014100FCF581852A82852B83121CA2A882A983ACF0FDC000C001C004C005852C82852D1A
:2001610083852EF0E52F121AB8AA82AB83ACF0FDE58124FCF581C002C003C004C0059000D3
:200181000075F06A7447121AAD85823085833185F032F533E58124FCF581120A407582006D
:2001A100120A44758202120A44758204120A44758208120A4478007900C3E8952AE9952BC7
:2001C10050030202B8C3E52898E5299950030202B8E828FCE933FD88828983C005C004C06D
:2001E10001C000121CA2AA82AB83AEF0FFC002C003C006C007852C82852D83852EF0E52F45
:20020100121AB8AA82AB83AEF0FFE58124FCF581C030C031C032C0338A828B838EF0EF12A7
:200221001C49AA82AB83AEF0FFE58124FCF581D000D001D004D0058A828B838EF0EFC007CD
:20024100C006C005C004C003C002C001C000121CAE85825ED000D001D002D003D004D00518
:200261008C828D83C005C004C003C002C001C000120A53D000D001D002D003D004D005D0A2
:2002810006D0070CBC00010D8A828B838EF0EFC005C004C001C000121CAEAF83D000D0016A
:2002A100D004D0058F5E8C828D83C001C000120A53D000D0018071C3E8952AE9952B50356F
:2002C100E828FEE933FF755E008E828F83C007C006C001C000120A53D000D001D006D00734
:2002E1008E828F83A3755EEAC001C000120A53D000D0018033E828FEE933FF755E2C8E82FF
:200301008F83C007C006C001C000120A53D000D001D006D0078E828F83A3755E01C001C0E5
:2003210000120A53D000D00108B800010974FC2940030201BA020A7FC020C0E0C0F0C0824C
:20034100C083C007C006C005C004C003C002C001C000C0D075D01863BC1074E7B5BC0985C7
:20036100BE2685BD2702048185BE2485BD25201F03020481E52425E0FEE52533FF8E827445
:20038100202FF583E493FEA3E493FF8E828F8375D000121CA275D018AC82AD83AEF0FFE494
:2003A100C0E0C0E074C8C0E07442C0E08C828D838EF0EF75D000121D2275D018AC82AD83EE
:2003C100AEF0FFE58124FCF581854182854283C01FC01EC01DC01C75D000121CA275D01809
:2003E100A882A983AAF0FBE4C0E0C0E074C8C0E07442C0E0888289838AF0EB75D000121DCC
:200401002275D018A882A983AAF0FBE58124FCF581C018C019C01AC01B90000075F0C674E0
:200421004275D000121AB875D018A882A983AAF0FBE58124FCF581D01CD01DD01ED01FC096
:2004410018C019C01AC01B8C828D838EF0EF75D000121C4975D018AC82AD83AEF0FFE581F0
:2004610024FCF5818C828D838EF0EF75D000121CAE75D018AE82AF83C2BF8E418F42D2BFC8
:1D048100D0D0D000D001D002D003D004D005D006D007D083D082D0F0D0E0D02032EB
:0300C40075360F7F
:20049E00C0E0C0D0C2AFE53624F8500FC3E5349428E53594235004C2958002D295D2AFD5B4
:2004BE00360375360FC3E5349428E5359423500B74012534F534E43535F535D0D0D0E03276
:2004DE00C2A9E522C4035407FF7006D2A975820322301706D2A97582022210150280047F51
:2004FE00008004C2167F01D2A98F8222C2A9E522540E60028006D2A975820322301306D2E6
:17051E00A97582022210110280047F008004C2127F01D2A98F822256
:2005350085825F85836085F0617BFF7CFF7A00C3EA955E5040EA255FF8E43560F9AF6188F3
:200555008289838FF0121DE5FFE4F86203EF62047F08EC30E710EB2BFDEC33FE74216DFB09
:1A05750074106EFC8006EB2BFBEC33FCEF14FEFF70E00A80BA8B828C8322FA
:1B00C700754410753B00753C00753D00753E00753F037540007541007542FFB7
:20058F00AE82AF83E49390300093FD8D3B8E828F83A3E49390300093FD8D3C8E828F83A341
:2005AF00A3E49390308093FD8D3D8E828F83A3A3A3E49390300093FF8F3E22E582FFC45437
:2005CF000F90300093FE8E3B740F5F90300093FF8F3CE55EC4540F90308093FF8F3D740F59
:2005EF00555E90300093FF8F3E22AF82900003E023235401FE60208F82C007120A0ED00762
:20060F0085435EC0071205CAD007EF24EE5010747F553EF53E800885435E8F821205CA90DC
:20062F000002E0FF30E011903030E493FFB53B08903020E493FF8F3B22900003E02354011E
:20064F00FF600B85498285485E1205CA800985488285495E1205CA747F553CF53C90000299
:20066F00E0FF30E022903030E493FFB53B08903020E493FF8F3B9030B0E493FFB53D08906C
:20068F0030A0E493FF8F3D22E582FF60119030CFE493FF8F3D90304EE493FF8F3E2290303C
:2006AF00CFE493FF8F3D903046E493FF8F3E22AE82AF838F05740F5D90300093FD8D3B8E33
:2006CF0004EFC4CCC4540F6CCC540FCC6CCC53040F7D00EC2400F582ED3430F583E493FD1B
:2006EF008D3C53060F7F00EE2480F582EF3430F583E493FF8F3D903043E493FF8F3E747FEC
:20070F00553CF53C22C0E0C0F0C0D075D00810DF02803DAF41740F5FF5EA8542FAE53F2451
:20072F003BF987A074F825444011853FF005F0E5408002C313D5F0FB20E030AF3F8FF005A1
:20074F00F07404800225E0D5F0FBF4FF52B0801B10D802801643B03CE53F700DAF441544AF
:12076F00EF7003754410753F04153FD0D0D0F0D0E032FF
:20078100C291C292C290000000000000000000000000000000000000000022858221A2086B
:2007A1009291D29000000000000000000000000000000000000000000000D292000000004F
:2007C100C292A2099291D29200000000C292A20A9291D29200000000C292A20B9291D29283
:2007E10000000000C292A20C9291D29200000000C292A20D9291D29200000000C292A20EE1
:200801009291D29200000000C292A20F9291D29200000000C29222D291000000A29192081E
:20082100D29200000000C292000000A2919209D29200000000C292000000A291920AD29246
:2008410000000000C292000000A291920BD29200000000C292000000A291920CD292000086
:200861000000C292000000A291920DD29200000000C292000000A291920ED2920000000062
:20088100C292000000A291920FD29200000000C29285218222858221A2089291D2920000D4
:2008A1000000C292A2099291D29200000000C292A20A9291D29200000000C292A20B929106
:2008C100D29200000000C292A20C9291D29200000000C292A20D9291D29200000000C2924C
:2008E100A20E9291D29200000000C292A20F9291D29200000000C2922275828E12079C750F
:200901008200120896C2901207817582BE12079C7F00901E94E4932FF98782C0071208966E
:20092100D0070FBF08ECC290227582FF12079C7F008F057E00C007C006C005120818AC82BB
:20094100D005D006D0078D828E83ECF00FBF1FE1C290227582FE12079C7F008F82758300A4
:20096100E0F582C007120896D0070FBF1FEDC29022900000E0FF900001E0FDE4FEFCEF4297
:2009810006EC4205755E1D90000275F000C006C005120535AC82AF83D005D006ECB50608A5
:2009A100EFB505047582012275820022755E1D90000275F000120535AE82AF838E0590009E
:2009C10000EDF08F06900001EEF022755E00755F3275608075610875620090004575F040B6
:2009E100121BBC755E08755F3275608075611F75620090000075F000121BBC1209AD12084B
:200A0100FA1207811208FA120781020954E58290322793F58222C0E0C0D0E582255ED4F5D5
:1F0A210082D0D0D0E022C0E0C0D0C2D7E582255ED4F582E583355FD4F583D0D0D0E0220A
:011E94004508
:20320000001110290706170000000000000000000000000000000000000000000000000040
:203220000000000000700000010203040506070809000000000000101112010203040506A9
:0B32400007000000000000080910114A
:200A400075C7C022AF8275C5038FC375C65A75C6A50022AE82AF8375C5028EC48FC3855EFC
:200A6000C275C65A75C6A50022AE82AF8375C5018EC48FC375C65A75C6A50085C282227507
:030A8000C780220A
:2020000000EA00EA00EA00EA00EA00EA00EA00EA00EA00EA00EA00EA00EA00EA00EA00EA20
:2020200000EA00EA00EA00EA00EA00EA00EA00EA00EA00EA00EA00EA00EA00EA00EA00EA00
:2020400000EA00EA00EA00EA00EA00EA00EA00EA00EA00EA00EA00EA00EA00EA00EA00EAE0
:2020600000EA00EA00EA00EA00EA00EA00EA00EA00EA00EA00EA00EA00EA00EA00EA00EAC0
:2020800000EA00EA00EA00EA00EA00EA00EA00EA00EA00EA00EA00EA00EA00EA00EA00EAA0
:2020A00000EA00EA00EA00EA00EA00EA00EA00EA00EA00EA00EA00EA00EA00EA00EA00EA80
:2020C00000EA00EA00EA00EA00EA00EA00EA00EA00EA00EA00EA00EA00EABEE97CE93AE9EF
:2020E000F8E8B6E874E832E8F0E7AEE76CE72AE7E8E6A6E664E622E6E0E59EE55CE51BE5E7
:20210000D9E497E455E413E4D1E38FE34DE30BE3C9E287E245E203E2C1E17FE13DE1FBE0F8
:20212000B9E077E035E0F3DFB1DF6FDF2DDFEBDEA9DE67DE25DEE3DDA1DD5FDD1DDDDBDC1B
:2021400099DC57DC15DCD3DB91DB50DB0EDBCCDA8ADA48DA06DAC4D982D940D9FED8BCD831
:202160007AD838D8F6D7B4D772D730D7EED6ACD66AD628D6E6D5A4D562D520D5DED49CD44F
:202180005AD418D4D6D394D352D310D3CED28CD24AD208D2C6D185D143D101D1BFD07DD06A
:2021A0003BD0F9CFB7CF75CF33CFF1CEAFCE6DCE2BCEE9CDA7CD65CD23CDE1CC9FCC5DCC83
:2021C0001BCCD9CB97CB55CB13CBD1CA8FCA4DCA0BCAC9C987C945C903C9C1C87FC83DC8A3
:2021E000FCC7BAC778C736C7F4C6B2C670C62EC6ECC5AAC568C526C5E4C4A2C460C41EC4B7
:20220000DCC39AC358C316C3D4C292C250C20EC2CCC18AC148C106C1C4C082C040C0FEBFD7
:20222000BCBF7ABF38BFF6BEB4BE72BE31BEEFBDADBD6BBD29BDE7BCA5BC63BC21BCDFBBF0
:202240009DBB5BBB19BBD7BA95BA53BA11BACFB98DB94BB909B9C7B885B843B801B8BFB70A
:202260007DB73BB7F9B6B7B675B633B6F1B5AFB56DB52BB5E9B4A8B466B424B4E2B3A0B329
:202280005EB31CB3DAB298B256B214B2D2B190B14EB10CB1CAB088B046B004B0C2AF80AF3E
:2022A0003EAFFCAEBAAE78AE36AEF4ADB2AD70AD2EADECACAAAC68AC26ACE4ABA2AB60AB62
:2022C0001EABDDAA9BAA59AA17AAD5A993A951A90FA9CDA88BA849A807A8C5A783A741A773
:2022E000FFA6BDA67BA639A6F7A5B5A573A531A5EFA4ADA46BA429A4E7A3A5A363A321A396
:20230000DFA29DA25BA219A2D7A195A153A112A1D0A08EA04CA00AA0C89F869F449F029FAC
:20232000C09E7E9E3C9EFA9DB89D769D349DF29CB09C6E9C2C9CEA9BA89B669B249BE29AC9
:20234000A09A5E9A1C9ADA99989956991499D29890984E980C98CA97899747970597C396E5
:2023600081963F96FD95BB9579953795F594B39471942F94ED93AB9369932793E592A392FD
:2023800061921F92DD919B9159911791D590939051900F90CD8F8B8F498F078FC58E838E1D
:2023A000418EFF8DBE8D7C8D3A8DF88CB68C748C328CF08BAE8B6C8B2A8BE88AA68A648A33
:2023C000228AE0899E895C891A89D888968854881288D0878E874C870A87C8868686448651
:2023E0000286C0857E853C85FA84B88476843484F383B1836F832D83EB82A982678225826C
:20240000E381A1815F811D81DB80998057801580D37F917F4F7F0D7FCB7E897E477E057E84
:20242000C37D817D3F7DFD7CBB7C797C377CF57BB37B717B2F7BED7AAB7A6A7A287AE679A5
:20244000A47962792079DE789C785A781878D677947752771077CE768C764A760876C675B8
:20246000847542750075BE747C743A74F873B67374733273F072AE726C722A72E871A671DB
:2024800064712271E0709F705D701B70D96F976F556F136FD16E8F6E4D6E0B6EC96D876DEF
:2024A000456D036DC16C7F6C3D6CFB6BB96B776B356BF36AB16A6F6A2D6AEB69A96967690F
:2024C0002569E368A1685F681D68DB67996757671667D466926650660E66CC658A65486528
:2024E0000665C46482644064FE63BC637A633863F662B46272623062EE61AC616A61286143
:20250000E660A46062602060DE5F9C5F5A5F185FD65E945E525E105ECE5D8C5D4B5D095D61
:20252000C75C855C435C015CBF5B7D5B3B5BF95AB75A755A335AF159AF596D592B59E95876
:20254000A75865582358E1579F575D571B57D956975655561356D1558F554D550B55C95497
:20256000875445540354C15380533E53FC52BA5278523652F451B25170512E51EC50AA50AE
:2025800068502650E44FA24F604F1E4FDC4E9A4E584E164ED44D924D504D0E4DCC4C8A4CCB
:2025A000484C064CC44B824B404BFE4ABC4A7A4A384AF749B54973493149EF48AD486B48E7
:2025C0002948E747A54763472147DF469D465B461946D745954553451145CF448D444B44FF
:2025E0000944C743854343430143BF427D423B42F941B74175413341F140AF406D402C4020
:20260000EA3FA83F663F243FE23EA03E5E3E1C3EDA3D983D563D143DD23C903C4E3C0C3C32
:20262000CA3B883B463B043BC23A803A3E3AFC39BA3978393639F438B23870382E38EC3755
:20264000AA3768372637E436A23661361F36DD359B3559351735D534933451340F34CD336B
:202660008B3349330733C53283324132FF31BD317B313931F730B53073303130EF2FAD2F89
:202680006B2F292FE72EA52E632E212EDF2D9D2D5B2D192DD82C962C542C122CD02B8E2BA4
:2026A0004C2B0A2BC82A862A442A022AC0297E293C29FA28B82876283428F227B0276E27BC
:2026C0002C27EA26A82666262426E225A0255E251C25DA24982456241424D22390234E23DE
:2026E0000D23CB22892247220522C32181213F21FD20BB2079203720F51FB31F711F2F1FF0
:20270000ED1EAB1E691E271EE51DA31D611D1F1DDD1C9B1C591C171CD51B931B511B0F1B11
:20272000CD1A8B1A491A071AC519841942190019BE187C183A18F817B61774173217F01628
:20274000AE166C162A16E815A61564152215E0149E145C141A14D813961354131213D01245
:202760008E124C120A12C811861144110211C0107E103C10FA0FB90F770F350FF30EB10E62
:202780006F0E2D0EEB0DA90D670D250DE30CA10C5F0C1D0CDB0B990B570B150BD30A910A79
:2027A0004F0A0D0ACB09890947090509C30881083F08FD07BB0779073707F506B30671069B
:2027C0002F06EE05AC056A052805E604A40462042004DE039C035A031803D60294025202AE
:2027E0001002CE018C014A014A014A014A014A014A014A014A014A014A014A014A014A019C
:2028000000009909990999099909990999099909990999099909990999099909990999093A
:20282000990999099909990999099909990999099909990999099909990999099909990978
:20284000990999099909990999099909990999099909990999099909990999099909990958
:20286000990999099909990999099909990999099909990999099909990999099909990938
:202880009909990999099909990999099909990999099509890984097809720966096109F4
:2028A0005509500944093909340929092409190914090909040999089508900885088108EC
:2028C000760872086808630859085508510847084308380834083108270823081908150827
:2028E000110808080408000897079307900786078307790776077207690766076207590799
:2029000056075307490746074307400737073407310728072507220719071607130710072F
:2029200007070507020799069606930691068806850683068006770675067206700667068E
:202940006406620659065706540652064906470645064206400637063506330630062806AD
:202960002606230621061906170614061206100608060606030601069905970595059305C1
:2029800091058805860584058205800578057605740572057005680566056405620560058A
:2029A00058055605540552055005490547054505430541053905370535053405320530058F
:2029C000280526052505230521051905170516051405120510050905070505050405020559
:2029E00000059804970495049304920490048804870485048304820480047904770475049F
:202A0000740472047104690467046604640463046104600458045704550454045204500467
:202A20004904470446044404430441044004390437043604340433043104300428042704BB
:202A40002504240423042104200418041704150414041304110410040804070406040404E4
:202A60000304020400049903970396039503930392039103890388038703850384038303E9
:202A8000810380037903770376037503740372037103700368036703660365036303620304
:202AA0006103600358035703560354035303520351035003480347034603450343034203E7
:202AC0004103400338033703360335033403320331033003290328032603250324032303C1
:202AE00022032003190318031703160315031303120311031003090308030603050304038B
:202B00000303020301030003980297029602950294029302920291028902880287028602C9
:202B20008502840283028202800279027802770276027502740273027202710269026802F9
:202B4000670266026502640263026202610260025902580256025502540253025202510293
:202B6000500249024802470246024502440243024202400239023802370236023502340232
:202B80003302320231023002290228022702260225022402230222022102200219021802B1
:202BA00017021602150214021202110210020902080207020602050204020302020201023F
:202BC000000299019801970196019501940193019201910190018901880187018601850174
:202BE000840183018201810180017901780177017601750174017301720171017001690145
:202C00006801670166016501640163016301620161016001590158015701560155015401B6
:202C2000530152015101500149014801470146014501440143014201410140013901380120
:202C4000370136013501340133013201310130012901280128012701260125012401230196
:202C60002201210120011901180117011601150114011301120111011001090108010701FC
:202C8000060105010401030103010201010100019900980097009600950094009300920068
:202CA0009100900089008800870086008500840083008200810080008000790078007700DE
:202CC000760075007400730072007100700069006800670066006500640063006200610042
:202CE0006000590058005700560056005500540053005200510050004900480047004600B3
:202D0000450044004300420041004000390038003700360035003400330032003100300017
:202D200029002800270026002600250024002300220021002000190018001700160015008D
:202D40001400130012001100100009000800070006000500040003000200010000000100EB
:202D6000020003000400050006000700080009001000000000000000000000000000000017
:202D8000000000000000000000000000000000000000000000000000000000000000000033
:202DA000000000000000000000000000000000000000000000000000000000000000000013
:202DC0000000000000000000000000000000000000000000000000000000000000000000F3
:202DE0000000000000000000000000000000000000000000000000000000000000000000D3
:202E00000000000000000000000000000000000000000000000000000000000000000000B2
:202E2000000000000000000000000000000000000000000000000000000000000000000092
:202E4000000000000000000000000000000000000000000000000000000000000000000072
:202E6000000000000000000000000000000000000000000000000000000000000000000052
:202E8000000000000000000000000000000000000000000000000000000000000000000032
:202EA000000000000000000000000000000000000000000000000000000000000000000012
:202EC0000000000000000000000000000000000000000000000000000000000000000000F2
:202EE0000000000000000000000000000000000000000000000000000000000000000000D2
:202F00000000000000000000000000000000000000000000000000000000000000000000B1
:202F2000000000000000000000000000000000000000000000000000000000000000000091
:202F4000000000000000000000000000000000000000000000000000000000000000000071
:202F6000000000000000000000000000000000000000000000000000000000000000000051
:202F8000000000000000000000000000000000000000000000000000000000000000000031
:202FA000000000000000000000000000000000000000000000000000000000000000000011
:202FC0000000000000000000000000000000000000000000000000000000000000000000F1
:202FE0000000000000000000000000000000000000000000000000000000000000000000D1
:1700E200755000755100755200755300755400754D00E4F54EF54FF7
:200A830012050AAF82C0071204DEAE82D0077407B55003020BD0BF0103EF8001E4FD600A61
:200AA300BE010775500075820022EF7021C007C006C005121A9985824E85834FD005D006A1
:200AC300D007C21E05507406B55003755000ED6016C007C006121A9985824E85834FD00689
:200AE300D007C21E755000EE7013101F02800CC2AF7541007542EAD2AF8002D21FE55070E8
:200B030003020BA9301E67C007C006121A99E5828583F0D006D007C3954EFCE5F0954FFDAE
:200B2300C374C89CE49D4003020BD005507406B550028022900003E0FD8550F005F0ED8067
:200B430002C313D5F0FB30E0E2121A9985824E85834F75820122C007C006121A9985824ED6
:200B630085834FD006D007C21E755000805FC007C006121A99E5828583F0D006D007C39534
:200B83004EFCE5F0954FFDC374E89C74039D503DC007C006121A9985824E85834FD006D052
:200BA300077550008027C007C006121A99E5828583F0D006D007C3954EFCE5F0954FFDC346
:200BC30074E89C74039D5005D21E020B2E7582BFC007C00612079CD006D007D2910000007E
:200BE300A2919208D29200000000C292000000A2919209D29200000000C292000000A291B4
:200C0300920AD29200000000C292000000A291920BD29200000000C292000000A291920C24
:200C2300D29200000000C292000000A291920DD29200000000C292000000A291920ED29238
:200C430000000000C292000000A291920FD29200000000C292AD218D45D291000000A2917B
:200C63009208D29200000000C292000000A2919209D29200000000C292000000A291920ACA
:200C8300D29200000000C292000000A291920BD29200000000C292000000A291920CD292DC
:200CA30000000000C292000000A291920DD29200000000C292000000A291920ED29200001C
:200CC3000000C292000000A291920FD29200000000C292AD218D46D291000000A291920860
:200CE300D29200000000C292000000A2919209D29200000000C292000000A291920AD29280
:200D030000000000C292000000A291920BD29200000000C292000000A291920CD2920000BF
:200D23000000C292000000A291920DD29200000000C292000000A291920ED292000000009B
:200D4300C292000000A291920FD29200000000C292AC218C47D291000000A2919208D2927C
:200D630000000000C292000000A2919209D29200000000C292000000A291920AD292000063
:200D83000000C292000000A291920BD29200000000C292000000A291920CD292000000003F
:200DA300C292000000A291920DD29200000000C292000000A291920ED29200000000C292C7
:200DC300000000A291920FD29200000000C292AC218C48D291000000A2919208D29200004F
:200DE3000000C292000000A2919209D29200000000C292000000A291920AD29200000000E3
:200E0300C292000000A291920BD29200000000C292000000A291920CD29200000000C2926A
:200E2300000000A291920DD29200000000C292000000A291920ED29200000000C29200009A
:200E430000A291920FD29200000000C292AC218C49D291000000A2919208D29200000000CD
:200E6300C292000000A2919209D29200000000C292000000A291920AD29200000000C2920E
:200E8300000000A291920BD29200000000C292000000A291920CD29200000000C29200003E
:200EA30000A291920DD29200000000C292000000A291920ED29200000000C292000000A278
:200EC30091920FD29200000000C292AC218C4AD291000000A2919208D29200000000C2929A
:200EE300000000A2919209D29200000000C292000000A291920AD29200000000C2920000E2
:200F030000A291920BD29200000000C292000000A291920CD29200000000C292000000A21B
:200F230091920DD29200000000C292000000A291920ED29200000000C292000000A2919276
:200F43000FD29200000000C292AC218C4BC290EDB54D03020FF1900003E0FD20E003020F59
:200F6300F17D00BD07004003020FEEC006ED75F003A4FBACF02404FAEC3400FE8A828E8347
:200F8300A3A3E0FE854AF005F0EE8002C313D5F0FBD00630E051C006EB2404FAEC3400FE48
:200FA3008A828E83A3A3E0D00630E03BEB2404F582EC3400F583E0FAB5472CEB2404FBECAC
:200FC3003400FC8B828C83A3E0FCB5461A53AFFBE4F534F53543AF04C21FC2AF7541007587
:200FE30042EAD2AF7550070D020F6685464DE55024F85003021108E550240B83F582E55087
:20100300240C83F583E4731A5979D3FAFF081A10101010101011107407B5501A75400FBFD3
:201023000114BE011175400053AFFBC2AFD295D2AFD21F7550008547828546431205F9E5B6
:201043004520E003021108747F553CF53C747F553DF53D02110885468285455E1205CAE568
:201063004520E003021108747F553CF53C747F553DF53D021108C2ADAE26AF27D2ADEE2ECF
:20108300FEEF33FF8E8274282FF583E493FEA3E493FF90001DE0FD90001EE0FBE4FA4DF51A
:2010A3005EEB4AF55F8E828F83120A27AC82AD838C068D07C374999E74099F50047E997FE9
:2010C300098E828F831206BE747F553CF53C8035AE4A7F00EE24FFF55EEF34FFF55F9000C1
:2010E30005121C2CAE82AF83EE2400F582EF3431F58312058F800E1206488009854B5E7517
:2011030082201205CA7582012212050AAF82C0071204DEAE82D007E5516020BF01107540E0
:20112300001208FA754D6075510075820022EF700A05517407B551037551017D00EE6003BF
:20114300BE02027D01E55124F95003021296E55175F003A490115B7302117002118502111D
:20116300850211D90211D902123802125AEE70020551EF70047582022290312312058F0295
:2011830012967401B5511B8D5E854782C005120A17AF82D005EFF54724DC50037547007528
:2011A30040037402B551178D5E854682120A17E582FFF54624A6500375460075400C8547E5
:2011C300828546431205F9747F553CF53C747F553DF53D0212967403B5512A8D5E85488275
:2011E300C005120A17AF82D005EFF54824CE5003754800900003E0235401FF600575400CB0
:2012030080037540037404B551268D5E854982120A17E582FFF54924ED5003754900900028
:2012230003E0235401FF6005754003800375400C120648805E8D5E854B82120A17E582FFDC
:20124300F54B24665003754B0075400F854B5E7582201205CA803C8D5E854A82120A17E5B4
:2012630082FFF54A24F85003754A0175400FAE4A7F00EE24FFF55EEF34FFF55F90000512C0
:201283001C2CAE82AF83EE2400F582EF3431F58312058F7582012212050AAF82C00712045D
:2012A300DEAE82D0077D00EE6003BE02027D01E4B5520280077401B5526E8019EF70047569
:2012C300820222EE700605527582012290312812058F0215F6BF01107552001209AD12097A
:2012E30054754D6075820022EE7008900003E06401FCF0900003E0FC30E00C90312DC007F2
:2013030012058FD007800A903132C00712058FD007747F553CF53C747F553DF53DEF6003CE
:201323000215F605520215F6E55324F650030215F6E553240B83F582E553240E83F583E4DD
:201343007358FDFD3232323232323213131315151515151515EF701205527409B5520280CD
:20136300030215F67552010215F6EE7036C006E55224FE75F003A4FBACF02404FAEC3400ED
:20138300FE74022AFAE43EFEEB2404FBEC3400FC8B828C83A3A3E0FC6304018A828E83ECB9
:2013A300F0D006BE010505530215F6BF010A75530075520075820022903041E493FE8E3B8A
:2013C300E55224FE90300093FE8E3CE55224FE75F003A42404FC740035F0FE8C828E83A3B4
:2013E300A3E0FE74015EF582120697747F553CF53C747F553DF53D0215F6EF7008055375C3
:2014030040000215F6BF01097553007540000215F67401B55368E55224FE75F003A4FCAE35
:20142300F02404FAEE3400FBEC2404F582EE3400F583E0FE8D5E8E82C005C003C002120A16
:2014430017AE82D002D003D0058A828B83EEF0E55224FE75F003A42404F582740035F0F53E
:2014630083E0FE24DC5014E55224FE75F003A42404F582740035F0F583E4F075400374028D
:20148300B55372E55224FE75F003A4FCAEF02404FAEE3400FB0ABA00010BEC2404FCEE348F
:2014A30000FE8C828E83A3E0FE8D5E8E82C003C002120A17AE82D002D0038A828B83EEF00B
:2014C300E55224FE75F003A42404FC740035F0FE8C828E83A3E0FE24A65017E55224FE754A
:2014E300F003A42404FC740035F0FE8C828E83A3E4F075400CE55224FE75F003A4FCAEF041
:201503002404F582EE3400F583E0FBEC2404FCEE3400FE8C828E83A3E0F5438B821205F98D
:20152300747F553CF53C747F553DF53D0215F6AC537E00EC24FDF55EEE34FFF55F90000548
:20154300C007C005121C2CAC82AE83EC2400F582EE3431F58312058FD005D007E55324FE45
:20156300FEE55224FE75F003A42404FB740035F0FC8B828C83A3A3E0FC8EF005F0EC80022E
:20158300C313D5F0FBFE30E008747F553EF53E80067480453EF53EED6044E55324FEFEE5E5
:2015A3005224FE75F003A4FDACF02404FAEC3400FB74022AFAE43BFBED2404FDEC3400FCF0
:2015C3008D828C83A3A3E0FD8EF005F07401800225E0D5F0FBFE62058A828B83EDF0EF70DD
:2015E3000C0553740AB5530B7553018006BF01037553007582012212050AAF82C0071204D0
:20160300DEAE82D007E55424F1500302185AE554240B83F582E554241383F583E4733F6307
:201623007878DD068DA1A1A1A1A1A1A1A1161616161617171717171717171717EF70131267
:2016430009AD120954121A9985824E85834F75820222EE7002055490313712058F02185A0B
:20166300EF7003755404EE700375540290313C12058F02185AC21FBF0103755401EE702FFA
:201683007402B55410C2ADAC24AD25D2AD8C558D560554801AC2ADAC24AD25D2AD855528DF
:2016A3008556298C828D83120101755401D21F7402B5541390314612058FC2AF75412C752F
:2016C3004201D2AF02185A90314B12058FC2AF7541007542EAD2AF02185AEF70037554062F
:2016E300EE701775540590001DE0FD90001EE0FBE4FCFA4DF555EB4AF55690315012058FE9
:2017030002185ABF0111755404AD5590001DEDF0AD5690001EEDF0EE6003BE0215755E01A0
:20172300755F00855582855683120A27858255858356C374409555740195565005E4F555D7
:20174300F556C2ADAC26AD27D2ADEC2CFCED33FD8C8274282DF583E493FCA3E493FD8555C3
:201763005E85565F8C828D83120A27AA82AB838A048B05C374999C74099D50047C997D0980
:201783008C828D831206BE02185AEE7003755407EF7002F55490315512058F02185AAC54D3
:2017A3007D00740B2CF55EE43DF55F900005C007C006121C2CAC82AD83EC2400F582ED34B4
:2017C30031F58312058FD006D007740EB554028047900003E0FDE55424FAF5F005F0ED80A8
:2017E30002C313D5F0FB5401F582C007C006120697D006D007EE7040900003E0FDE554242E
:20180300FAF5F005F07401800225E0D5F0FBFC6205900003EDF08020900002E0FD74015D81
:20182300F582C007C006120697D006D007EE7008900002E06401FEF0747F553CF53C747F72
:1B184300553DF53DEF700A0554740FB55403755407BF010375540675820122F9
:203300000C11830A830A830A0C119A12830A9A12FA15830AFA15830A0100000001020002A9
:0433200003000300A3
:20300000C0F9A4B0999282F880908883C6A1868EFFFFFFFFFFFFFFFFFFFFFFFFFFFFFFFF78
:20302000FFFFDDFFFFFFFFFDC6F0FFFFEFBFFFFFC0F9A4B0999282F88090FFFFFFFFFFFFA0
:20304000FF8883C6A1868EC289F9F1FFC7FFABC08C98AF9287C1FFFFFF91FFC6FFF0FFF7A1
:20306000DF8883A7A1848EC28BFBF1FFF9FFABA38C98AF9287E3FFFFFFFFFFFFFFFFFFFFC9
:20308000C0CFA4868B9290C780828198F08CB0B1FFFFFFFFFFFFFFFFFFFFFFFFFFFFFFFF1B
:2030A000FFFFEBFFFFFFFFEFF0C6FFFFFDBFFFFFC0CFA4868B9290C78082FFFFFFFFFFFFA5
:2030C000FF8198F08CB0B1D089CFCEFFF8FF9DC0A183BD92B8C8FFFFFF8AFFF0FFC6FFFE87
:2030E000FB8198BC8CA0B1D099DFCEFFCFFF9D9CA183BD92B8DCFFFFFFFFFFFFFFFFFFFF0A
:203100004E4F4E2000545545200055454420005448555200465249200053415420005355A4
:203120004E200053455443005345544100414C4F4E00414C4F4600434F4E46004C43414C37
:2031400000434C444E00434C4C4F00434C4849005443414C0044495350004E53202000547B
:203160005020200044552020004454202000595220200031322020004E442020005230200C
:0231800020002D
:0400000002006B325D
:03000B000219CD0A
:0100130032BA
:01001B0032B2
:0100230032AA
:03002B0002033994
:01003300329A
:03003B00020714A5
:01004300328A
:01004B003282
:01005300327A
:01005B003272
:0300630002049EF6
:0300FE0002006697
:0300660002185E1F
:20185E00E5812404F5817F007D837E0A53AFFB538EE275D72A75D610438E10C2954391C002
:20187E00439DC075BC80439720E4F5BEF5BDD2AD000000000000000075BCE6758900758A23
:20189E0000758CB8758800538E7FD2A9D28C7595FF7596FF75D909E4F5D8F5E9F5F985418E
:2018BE00EA8542FA75DA49D2DED2BFD2AF853EA053B0DFD21F753700753800752200753931
:2018DE0000753A00C2A9855C58855D59D2A9E55CC39558FAE55D9559FCC3EA94C8EC940041
:2018FE0040ECD2955390F8439102439207C007C006C00512078112092A120972E582D005B0
:20191E00D006D0076028C007C006C00512050AAC82D005D006D007BC0223C007C006C0051E
:20193E001204DEAC82D005D006D007BC020FC007C006C0051209CCD005D006D007D21FC2AA
:20195E001EC007C006C0058D828E83120069858257D005D006D007EF75F006A42400FA74EE
:20197E003335F0FBE55725572AF582E43BF583E493FDA3E493FEEF75F003A42418FB7433A1
:20199E0035F0FCE5572BF582E43CF583E493FFC2A9855C5A855D5BD2A9E55CC3955AFAE5EC
:0F19BE005D955BFCC3EA940AEC940040EC8092C8
:0500F900E4F55CF55D7B
:2019CD00C0E0C0D075D0107401255CF55CE4355DF55D74E7B5BC0BE4F5BEF5BD75BCE675BA
:2019ED00BCEE74E6B5BC0BE4F5BEF5BD75BCE775BCEFE53725E0FFA2B1E4334FF537E538B7
:201A0D0025E0FFA2B0E433FE4FF53874875537FFBF800BD2105322F1753900753700748765
:201A2D005538FFBF800BD21453221F753A0075380074875537FFBF071710130CE53924DF3A
:201A4D005004D2128002D211C2107539007537FF74875538FFBF071710170CE53A24DF50A8
:201A6D0004D2168002D215C214753A007538FF30100905397496B53902D213301409053AE1
:171A8D007496B53A02D217D0D0D0E032C2A9855C82855D83D2A9220C
:091AA40085829910990280FB2251
:0B1AAD00A8811818C6B2E7C6021C4949
:201AB800121B5BBC0003021CDAEF60FA30D502B2D1E583B4FF03021CF0E582B4FF03021C95
:201AD800F0258340072482400B021CDA2483145003021CF0F582EA8DF0A4A8F0EA8EF0A4E4
:201AF80028F8E435F0F9EB8DF0A428E935F0F9E433CA8FF0A429F9EA35F0FAEBF88EF0A43D
:201B180029F9EA35F0FAE433FBEC8DF0A429F9EA35F0FAE43BFBE88FF0A42AFAEB35F0FBE4
:201B3800E433CCFD8EF0A42AFAEB35F0FBE43CFCED8FF0A42BFBEC35F0FC20E703121B893D
:031B5800021CB9B3
:201B5B00AA82AB83A2F73392D1F5826002D2F7ACF0E58124F9F8E6FD08E6FE0886F008E6ED
:0E1B7B00A2F73392D5F5836002D2F7AFF022C5
:06009A00E478FFF6D8FD3A
:201B89007804EC7011E58224F8500AF582E4C9CACBFCD8EF22EC7820058220E713D582015B
:131BA90022C3E933F9EA33FAEB33FBEC33FCD8EA15822269
:201BBC00AD82AE83AFF08D638E648F65855E66855F67856068A861A9628803890418B8FF58
:201BDC000119EB4C60258566828567838568F0121DE5FCA38582668583678D828E838FF02C
:151BFC00EC121C11A3AD82AE8380CE8563828564838565F02286
:200078007900E94400601B7A00901E95780175A000E493F2A308B8000205A0D9F4DAF2757B
:02009800A0FFC7
:1B1C110020F71130F6138883A88220F509F6A8837583002280FEF280F5F022D2
:1D1C2C00E582855EF0A4C582C0F0855FF0A4D0F025F0C583855EF0A42583F5832278
:2000A0007800E84400600A790175A000E4F309D8FC7800E84400600C7900900001E4F0A35E
:0400C000D8FCD9FA95
:201C4900121B5B7900E583B58202800D5003121D08E583C39582121E14E5D0C465D020E18D
:201C690017EA2DFAEB3EFBEC3FFC50097401121E14EC4480FC021CB9C3EA9DFAEB9EFBEC9F
:191C89009FFC500FC3E499F9E49AFAE49BFBE49CFCB2D1121B89021CB991
:0C1CA200E4AC83AB82FAF9748E021E0AD7
:0B1CAE007F8E121E5DF58385F0822200
:02006900E4733E
:201CB900B98003EA13B34010EA2401FAE43BFBE43CFC50047C800582BC000EBB000BBA006F
:201CD90008E4F5F0F583F58222A2D1E582138CF092F78B838A8222E4F583F58275F080F42F
:0F1CF900A2D11322E4F583F58275F0C0747F2227
:1A1D0800E582C583F582A2D133A2D592D11392D5ECCFFCEBCEFBEACDFA2263
:201D2200121B5B30D502B2D1BF0009BC0003021CFD021CF0BC0003021CDAE583B4FF0BE51D
:201D420082B4FF03021CFD021CDAE582B4FF03021CF0C395835007247F400B021CDA24804F
:201D6200145003021CF0F582C3ED9AEE9BEF9C40111582C3EA33F9EB33FAEC33FBE433FC11
:201D82008005E4CCCBCAF9C08275F019C3E99DEA9EEB9FEC9400D5F002802D400EE99DF9A2
:201DA200EA9EFAEB9FFBEC9400FCC3B3E833F8E58233F582E58333F583C3E933F9EA33FA02
:201DC200EB33FBEC33FC80C4B3E4F938FAE43582FBE43583FCD082500405827C80121B89BA
:031DE200021CD10F
:0D006B00758168121E57E582600302006671
:1C1DE50020F71430F6148883A88220F507E6A88375830022E280F7E49322E0220D
:131E0100FCABF0AA83A982749EC2D1F582121B89021CB936
:201E14006040F82582500274FFF582E824F8501ECCCBCAF9E4CC24F85014CBCAF9E4CB24D6
:201E3400F8500BCAF9E4CA24F8500379002224086010F8C3EC13FCEB13FBEA13FAE913F989
:031E5400D8F122A0
:041E5700758200226E
:201E5B007F9E121E8230D103021CDAC3EF9582500974FFF5F0F583F582227900121E1489CB
:071E7B00828A838BF0EC2248
:121E8200AA82AB83A2F73392D1F5826002D2F7ACF02265
:00000001FF
